{
    "contractName": "SimpleStorage",
    "abi": [
        {
            "inputs": [
                {
                    "internalType": "string",
                    "name": "_name",
                    "type": "string"
                },
                {
                    "internalType": "uint256",
                    "name": "_favoriteNumber",
                    "type": "uint256"
                }
            ],
            "name": "addPerson",
            "outputs": [],
            "stateMutability": "nonpayable",
            "type": "function"
        },
        {
            "inputs": [
                {
                    "internalType": "uint256",
                    "name": "",
                    "type": "uint256"
                }
            ],
            "name": "listOfPeople",
            "outputs": [
                {
                    "internalType": "uint256",
                    "name": "favoriteNumber",
                    "type": "uint256"
                },
                {
                    "internalType": "string",
                    "name": "name",
                    "type": "string"
                }
            ],
            "stateMutability": "view",
            "type": "function"
        },
        {
            "inputs": [
                {
                    "internalType": "string",
                    "name": "",
                    "type": "string"
                }
            ],
            "name": "nameTofaoriteNumber",
            "outputs": [
                {
                    "internalType": "uint256",
                    "name": "",
                    "type": "uint256"
                }
            ],
            "stateMutability": "view",
            "type": "function"
        },
        {
            "inputs": [],
            "name": "retrieve",
            "outputs": [
                {
                    "internalType": "uint256",
                    "name": "",
                    "type": "uint256"
                }
            ],
            "stateMutability": "view",
            "type": "function"
        },
        {
            "inputs": [
                {
                    "internalType": "uint256",
                    "name": "_favoriteNumber",
                    "type": "uint256"
                }
            ],
            "name": "store",
            "outputs": [],
            "stateMutability": "nonpayable",
            "type": "function"
        }
    ],
    "bytecode": "608080604052346015576104ec908161001a8239f35b5f80fdfe60806040526004361015610011575f80fd5b5f3560e01c80632b94d4a7146103645780632e64cec1146103485780632ebce631146102505780636057361d1461023857636f760f4114610050575f80fd5b346102345760403660031901126102345760043567ffffffffffffffff8111610234576100819036906004016103dc565b602435604051916040830183811067ffffffffffffffff82111761020d5760405281835260208301928184526001546801000000000000000081101561020d578060016100d19201600155610432565b6102215760019151815501925192835167ffffffffffffffff811161020d576100fa825461047e565b601f81116101c8575b50602094601f821160011461015f57908060209596869594935f92610154575b50508160011b915f199060031b1c19161790555b604051928184925191829101835e81016002815203019020555f80f35b015190505f80610123565b94601f19821690835f52805f20915f5b8181106101b05750918391602097988897969560019510610198575b505050811b019055610137565b01515f1960f88460031b161c191690555f808061018b565b9192602060018192868c01518155019401920161016f565b825f5260205f20601f830160051c81019160208410610203575b601f0160051c01905b8181106101f85750610103565b5f81556001016101eb565b90915081906101e2565b634e487b7160e01b5f52604160045260245ffd5b634e487b7160e01b5f525f60045260245ffd5b5f80fd5b34610234576020366003190112610234576004355f55005b34610234576020366003190112610234576004356001548110156102345761027790610432565b5060018154910190604051905f928054906102918261047e565b9081855260208501926001811690815f1461032b57506001146102f1575b50506102c0836060949503856103ba565b6040519384928352604060208401525180918160408501528484015e5f828201840152601f01601f19168101030190f35b9094505f5260205f205f905b8582106103155750830160200193506102c0836102af565b60018160209254838589010152019101906102fd565b60ff191684525050151560051b830160200193506102c0836102af565b34610234575f3660031901126102345760205f54604051908152f35b346102345760203660031901126102345760043567ffffffffffffffff811161023457602080610399819336906004016103dc565b604051928184925191829101835e8101600281520301902054604051908152f35b90601f8019910116810190811067ffffffffffffffff82111761020d57604052565b81601f820112156102345780359067ffffffffffffffff821161020d5760405192610411601f8401601f1916602001856103ba565b8284526020838301011161023457815f926020809301838601378301015290565b60015481101561046a5760015f81815291901b7fb10e2d527612073b26eecdfd717e6a320cf44b4afac2b0732d9fcbe2b7fa0cf60191565b634e487b7160e01b5f52603260045260245ffd5b90600182811c921680156104ac575b602083101461049857565b634e487b7160e01b5f52602260045260245ffd5b91607f169161048d56fea26469706673582212205b0e0662bfe555f538368ddbf172046c03d65d5423a4eeef3fd5e667c7f2602864736f6c634300081e0033",
    "sourcePath": "d:/projects/My_Web3_Journey/Full-Stack-Web3-Developing/CyfrinUpdraft/session1/SimpleStorage.sol",
    "compiler": {
        "name": "solc",
        "version": "0.8.30+commit.73712a01"
    },
    "functionHashes": {
        "addPerson(string,uint256)": "6f760f41",
        "listOfPeople(uint256)": "2ebce631",
        "nameTofaoriteNumber(string)": "2b94d4a7",
        "retrieve()": "2e64cec1",
        "store(uint256)": "6057361d"
    },
    "gasEstimates": {
        "creation": {
            "codeDepositCost": "252000",
            "executionCost": "300",
            "totalCost": "252300"
        },
        "external": {
            "addPerson(string,uint256)": "infinite",
            "listOfPeople(uint256)": "infinite",
            "nameTofaoriteNumber(string)": "infinite",
            "retrieve()": "2269",
            "store(uint256)": "22296"
        }
    }
}