{
    "contractName": "SimpleStorage",
    "abi": [
        {
            "inputs": [],
            "name": "favoriteNumber",
            "outputs": [
                {
                    "internalType": "uint256",
                    "name": "",
                    "type": "uint256"
                }
            ],
            "stateMutability": "view",
            "type": "function"
        },
        {
            "inputs": [
                {
                    "internalType": "uint256",
                    "name": "",
                    "type": "uint256"
                }
            ],
            "name": "favoriteNumbers",
            "outputs": [
                {
                    "internalType": "uint256",
                    "name": "",
                    "type": "uint256"
                }
            ],
            "stateMutability": "view",
            "type": "function"
        },
        {
            "inputs": [
                {
                    "internalType": "uint256",
                    "name": "",
                    "type": "uint256"
                }
            ],
            "name": "list0fPeople",
            "outputs": [
                {
                    "internalType": "uint256",
                    "name": "favoriteNumber",
                    "type": "uint256"
                },
                {
                    "internalType": "string",
                    "name": "name",
                    "type": "string"
                }
            ],
            "stateMutability": "view",
            "type": "function"
        },
        {
            "inputs": [
                {
                    "internalType": "uint256",
                    "name": "_favoriteNumber",
                    "type": "uint256"
                },
                {
                    "internalType": "string",
                    "name": "_name",
                    "type": "string"
                }
            ],
            "name": "store",
            "outputs": [],
            "stateMutability": "nonpayable",
            "type": "function"
        }
    ],
    "bytecode": "6080806040523460155761046a908161001a8239f35b5f80fdfe6080806040526004361015610012575f80fd5b5f3560e01c90816329cd1d961461035d57508063471f7cdf146103415780637a7cf718146102495763e1ff178a14610048575f80fd5b346102455760403660031901126102455760243567ffffffffffffffff8111610245573660238201121561024557806004013567ffffffffffffffff811161021e57604051916100a2601f8301601f191660200184610412565b818352366024838301011161024557815f9260246020930183860137830101526040516040810181811067ffffffffffffffff82111761021e576040526004358152602081019182526002546801000000000000000081101561021e5780600161010f92016002556103aa565b6102325760019151815501905190815167ffffffffffffffff811161021e5761013882546103da565b601f81116101d9575b50602092601f821160011461017d57928192935f92610172575b50505f19600383901b1c191660019190911b179055005b015190505f8061015b565b601f19821693835f52805f20915f5b8681106101c157508360019596106101a9575b505050811b019055005b01515f1960f88460031b161c191690555f808061019f565b9192602060018192868501518155019401920161018c565b825f5260205f20601f830160051c81019160208410610214575b601f0160051c01905b8181106102095750610141565b5f81556001016101fc565b90915081906101f3565b634e487b7160e01b5f52604160045260245ffd5b634e487b7160e01b5f525f60045260245ffd5b5f80fd5b346102455760203660031901126102455760043560025481101561024557610270906103aa565b5060018154910190604051905f9280549061028a826103da565b9081855260208501926001811690815f1461032457506001146102ea575b50506102b983606094950385610412565b6040519384928352604060208401525180918160408501528484015e5f828201840152601f01601f19168101030190f35b9094505f5260205f205f905b85821061030e5750830160200193506102b9836102a8565b60018160209254838589010152019101906102f6565b60ff191684525050151560051b830160200193506102b9836102a8565b34610245575f3660031901126102455760205f54604051908152f35b3461024557602036600319011261024557600435906001548210156102455760209160015f527fb10e2d527612073b26eecdfd717e6a320cf44b4afac2b0732d9fcbe2b7fa0cf601548152f35b6002548110156103c65760025f5260205f209060011b01905f90565b634e487b7160e01b5f52603260045260245ffd5b90600182811c92168015610408575b60208310146103f457565b634e487b7160e01b5f52602260045260245ffd5b91607f16916103e9565b90601f8019910116810190811067ffffffffffffffff82111761021e5760405256fea26469706673582212206e284a4ae59025269cc700104754ced7cd1454fbcce32dd534ba37b79f845e7764736f6c634300081e0033",
    "sourcePath": "d:/projects/My_Web3_Journey/Full-Stack-Web3-Developing/dev3pack/Solidity_Course/session1/SimpleStorage.sol",
    "compiler": {
        "name": "solc",
        "version": "0.8.30+commit.73712a01"
    },
    "functionHashes": {
        "favoriteNumber()": "471f7cdf",
        "favoriteNumbers(uint256)": "29cd1d96",
        "list0fPeople(uint256)": "7a7cf718",
        "store(uint256,string)": "e1ff178a"
    },
    "gasEstimates": {
        "creation": {
            "codeDepositCost": "226000",
            "executionCost": "276",
            "totalCost": "226276"
        },
        "external": {
            "favoriteNumber()": "2277",
            "favoriteNumbers(uint256)": "4394",
            "list0fPeople(uint256)": "infinite",
            "store(uint256,string)": "infinite"
        }
    }
}